{
  "_format": "hh-sol-artifact-1",
  "contractName": "Gift",
  "sourceName": "contracts/Gift.sol",
  "abi": [
    {
      "inputs": [],
      "stateMutability": "nonpayable",
      "type": "constructor"
    },
    {
      "anonymous": false,
      "inputs": [
        {
          "indexed": true,
          "internalType": "address",
          "name": "owner",
          "type": "address"
        },
        {
          "indexed": true,
          "internalType": "address",
          "name": "approved",
          "type": "address"
        },
        {
          "indexed": true,
          "internalType": "uint256",
          "name": "tokenId",
          "type": "uint256"
        }
      ],
      "name": "Approval",
      "type": "event"
    },
    {
      "anonymous": false,
      "inputs": [
        {
          "indexed": true,
          "internalType": "address",
          "name": "owner",
          "type": "address"
        },
        {
          "indexed": true,
          "internalType": "address",
          "name": "operator",
          "type": "address"
        },
        {
          "indexed": false,
          "internalType": "bool",
          "name": "approved",
          "type": "bool"
        }
      ],
      "name": "ApprovalForAll",
      "type": "event"
    },
    {
      "anonymous": false,
      "inputs": [
        {
          "indexed": true,
          "internalType": "address",
          "name": "previousOwner",
          "type": "address"
        },
        {
          "indexed": true,
          "internalType": "address",
          "name": "newOwner",
          "type": "address"
        }
      ],
      "name": "OwnershipTransferred",
      "type": "event"
    },
    {
      "anonymous": false,
      "inputs": [
        {
          "indexed": true,
          "internalType": "address",
          "name": "from",
          "type": "address"
        },
        {
          "indexed": true,
          "internalType": "address",
          "name": "to",
          "type": "address"
        },
        {
          "indexed": true,
          "internalType": "uint256",
          "name": "tokenId",
          "type": "uint256"
        }
      ],
      "name": "Transfer",
      "type": "event"
    },
    {
      "inputs": [
        {
          "internalType": "address",
          "name": "to",
          "type": "address"
        },
        {
          "internalType": "uint256",
          "name": "tokenId",
          "type": "uint256"
        }
      ],
      "name": "approve",
      "outputs": [],
      "stateMutability": "nonpayable",
      "type": "function"
    },
    {
      "inputs": [
        {
          "internalType": "address",
          "name": "owner",
          "type": "address"
        }
      ],
      "name": "balanceOf",
      "outputs": [
        {
          "internalType": "uint256",
          "name": "",
          "type": "uint256"
        }
      ],
      "stateMutability": "view",
      "type": "function"
    },
    {
      "inputs": [
        {
          "internalType": "uint256",
          "name": "tokenId",
          "type": "uint256"
        }
      ],
      "name": "getApproved",
      "outputs": [
        {
          "internalType": "address",
          "name": "",
          "type": "address"
        }
      ],
      "stateMutability": "view",
      "type": "function"
    },
    {
      "inputs": [
        {
          "internalType": "address",
          "name": "owner",
          "type": "address"
        },
        {
          "internalType": "address",
          "name": "operator",
          "type": "address"
        }
      ],
      "name": "isApprovedForAll",
      "outputs": [
        {
          "internalType": "bool",
          "name": "",
          "type": "bool"
        }
      ],
      "stateMutability": "view",
      "type": "function"
    },
    {
      "inputs": [],
      "name": "name",
      "outputs": [
        {
          "internalType": "string",
          "name": "",
          "type": "string"
        }
      ],
      "stateMutability": "view",
      "type": "function"
    },
    {
      "inputs": [],
      "name": "owner",
      "outputs": [
        {
          "internalType": "address",
          "name": "",
          "type": "address"
        }
      ],
      "stateMutability": "view",
      "type": "function"
    },
    {
      "inputs": [
        {
          "internalType": "uint256",
          "name": "tokenId",
          "type": "uint256"
        }
      ],
      "name": "ownerOf",
      "outputs": [
        {
          "internalType": "address",
          "name": "",
          "type": "address"
        }
      ],
      "stateMutability": "view",
      "type": "function"
    },
    {
      "inputs": [],
      "name": "renounceOwnership",
      "outputs": [],
      "stateMutability": "nonpayable",
      "type": "function"
    },
    {
      "inputs": [
        {
          "internalType": "address",
          "name": "_to",
          "type": "address"
        }
      ],
      "name": "safeMint",
      "outputs": [
        {
          "internalType": "uint256",
          "name": "",
          "type": "uint256"
        }
      ],
      "stateMutability": "nonpayable",
      "type": "function"
    },
    {
      "inputs": [
        {
          "internalType": "address",
          "name": "from",
          "type": "address"
        },
        {
          "internalType": "address",
          "name": "to",
          "type": "address"
        },
        {
          "internalType": "uint256",
          "name": "tokenId",
          "type": "uint256"
        }
      ],
      "name": "safeTransferFrom",
      "outputs": [],
      "stateMutability": "nonpayable",
      "type": "function"
    },
    {
      "inputs": [
        {
          "internalType": "address",
          "name": "from",
          "type": "address"
        },
        {
          "internalType": "address",
          "name": "to",
          "type": "address"
        },
        {
          "internalType": "uint256",
          "name": "tokenId",
          "type": "uint256"
        },
        {
          "internalType": "bytes",
          "name": "data",
          "type": "bytes"
        }
      ],
      "name": "safeTransferFrom",
      "outputs": [],
      "stateMutability": "nonpayable",
      "type": "function"
    },
    {
      "inputs": [
        {
          "internalType": "address",
          "name": "operator",
          "type": "address"
        },
        {
          "internalType": "bool",
          "name": "approved",
          "type": "bool"
        }
      ],
      "name": "setApprovalForAll",
      "outputs": [],
      "stateMutability": "nonpayable",
      "type": "function"
    },
    {
      "inputs": [
        {
          "internalType": "bytes4",
          "name": "interfaceId",
          "type": "bytes4"
        }
      ],
      "name": "supportsInterface",
      "outputs": [
        {
          "internalType": "bool",
          "name": "",
          "type": "bool"
        }
      ],
      "stateMutability": "view",
      "type": "function"
    },
    {
      "inputs": [],
      "name": "symbol",
      "outputs": [
        {
          "internalType": "string",
          "name": "",
          "type": "string"
        }
      ],
      "stateMutability": "view",
      "type": "function"
    },
    {
      "inputs": [
        {
          "internalType": "uint256",
          "name": "index",
          "type": "uint256"
        }
      ],
      "name": "tokenByIndex",
      "outputs": [
        {
          "internalType": "uint256",
          "name": "",
          "type": "uint256"
        }
      ],
      "stateMutability": "view",
      "type": "function"
    },
    {
      "inputs": [
        {
          "internalType": "address",
          "name": "owner",
          "type": "address"
        },
        {
          "internalType": "uint256",
          "name": "index",
          "type": "uint256"
        }
      ],
      "name": "tokenOfOwnerByIndex",
      "outputs": [
        {
          "internalType": "uint256",
          "name": "",
          "type": "uint256"
        }
      ],
      "stateMutability": "view",
      "type": "function"
    },
    {
      "inputs": [
        {
          "internalType": "uint256",
          "name": "tokenId",
          "type": "uint256"
        }
      ],
      "name": "tokenURI",
      "outputs": [
        {
          "internalType": "string",
          "name": "",
          "type": "string"
        }
      ],
      "stateMutability": "view",
      "type": "function"
    },
    {
      "inputs": [],
      "name": "totalSupply",
      "outputs": [
        {
          "internalType": "uint256",
          "name": "",
          "type": "uint256"
        }
      ],
      "stateMutability": "view",
      "type": "function"
    },
    {
      "inputs": [
        {
          "internalType": "address",
          "name": "from",
          "type": "address"
        },
        {
          "internalType": "address",
          "name": "to",
          "type": "address"
        },
        {
          "internalType": "uint256",
          "name": "tokenId",
          "type": "uint256"
        }
      ],
      "name": "transferFrom",
      "outputs": [],
      "stateMutability": "nonpayable",
      "type": "function"
    },
    {
      "inputs": [
        {
          "internalType": "address",
          "name": "newOwner",
          "type": "address"
        }
      ],
      "name": "transferOwnership",
      "outputs": [],
      "stateMutability": "nonpayable",
      "type": "function"
    }
  ],
  "bytecode": "0x60806040526040518060800160405280604f815260200162003715604f9139600d908051906020019062000035929190620001d8565b503480156200004357600080fd5b506040518060400160405280600481526020017f47696674000000000000000000000000000000000000000000000000000000008152506040518060400160405280600481526020017f47494654000000000000000000000000000000000000000000000000000000008152508160009080519060200190620000c8929190620001d8565b508060019080519060200190620000e1929190620001d8565b50505062000104620000f86200010a60201b60201c565b6200011260201b60201c565b620002ed565b600033905090565b6000600b60009054906101000a900473ffffffffffffffffffffffffffffffffffffffff16905081600b60006101000a81548173ffffffffffffffffffffffffffffffffffffffff021916908373ffffffffffffffffffffffffffffffffffffffff1602179055508173ffffffffffffffffffffffffffffffffffffffff168173ffffffffffffffffffffffffffffffffffffffff167f8be0079c531659141344cd1fd0a4f28419497f9722a3daafe3b4186f6b6457e060405160405180910390a35050565b828054620001e690620002b7565b90600052602060002090601f0160209004810192826200020a576000855562000256565b82601f106200022557805160ff191683800117855562000256565b8280016001018555821562000256579182015b828111156200025557825182559160200191906001019062000238565b5b50905062000265919062000269565b5090565b5b80821115620002845760008160009055506001016200026a565b5090565b7f4e487b7100000000000000000000000000000000000000000000000000000000600052602260045260246000fd5b60006002820490506001821680620002d057607f821691505b60208210811415620002e757620002e662000288565b5b50919050565b61341880620002fd6000396000f3fe608060405234801561001057600080fd5b506004361061012c5760003560e01c80636352211e116100ad578063a22cb46511610071578063a22cb46514610357578063b88d4fde14610373578063c87b56dd1461038f578063e985e9c5146103bf578063f2fde38b146103ef5761012c565b80636352211e146102b157806370a08231146102e1578063715018a6146103115780638da5cb5b1461031b57806395d89b41146103395761012c565b806323b872dd116100f457806323b872dd146101e95780632f745c591461020557806340d097c31461023557806342842e0e146102655780634f6ccce7146102815761012c565b806301ffc9a71461013157806306fdde0314610161578063081812fc1461017f578063095ea7b3146101af57806318160ddd146101cb575b600080fd5b61014b60048036038101906101469190612294565b61040b565b60405161015891906122dc565b60405180910390f35b61016961041d565b6040516101769190612390565b60405180910390f35b610199600480360381019061019491906123e8565b6104af565b6040516101a69190612456565b60405180910390f35b6101c960048036038101906101c4919061249d565b6104f5565b005b6101d361060d565b6040516101e091906124ec565b60405180910390f35b61020360048036038101906101fe9190612507565b61061a565b005b61021f600480360381019061021a919061249d565b61067a565b60405161022c91906124ec565b60405180910390f35b61024f600480360381019061024a919061255a565b61071f565b60405161025c91906124ec565b60405180910390f35b61027f600480360381019061027a9190612507565b6107df565b005b61029b600480360381019061029691906123e8565b6107ff565b6040516102a891906124ec565b60405180910390f35b6102cb60048036038101906102c691906123e8565b610870565b6040516102d89190612456565b60405180910390f35b6102fb60048036038101906102f6919061255a565b610922565b60405161030891906124ec565b60405180910390f35b6103196109da565b005b6103236109ee565b6040516103309190612456565b60405180910390f35b610341610a18565b60405161034e9190612390565b60405180910390f35b610371600480360381019061036c91906125b3565b610aaa565b005b61038d60048036038101906103889190612728565b610ac0565b005b6103a960048036038101906103a491906123e8565b610b22565b6040516103b69190612390565b60405180910390f35b6103d960048036038101906103d491906127ab565b610b34565b6040516103e691906122dc565b60405180910390f35b6104096004803603810190610404919061255a565b610bc8565b005b600061041682610c4c565b9050919050565b60606000805461042c9061281a565b80601f01602080910402602001604051908101604052809291908181526020018280546104589061281a565b80156104a55780601f1061047a576101008083540402835291602001916104a5565b820191906000526020600020905b81548152906001019060200180831161048857829003601f168201915b5050505050905090565b60006104ba82610cc6565b6004600083815260200190815260200160002060009054906101000a900473ffffffffffffffffffffffffffffffffffffffff169050919050565b600061050082610870565b90508073ffffffffffffffffffffffffffffffffffffffff168373ffffffffffffffffffffffffffffffffffffffff161415610571576040517f08c379a0000000000000000000000000000000000000000000000000000000008152600401610568906128be565b60405180910390fd5b8073ffffffffffffffffffffffffffffffffffffffff16610590610d11565b73ffffffffffffffffffffffffffffffffffffffff1614806105bf57506105be816105b9610d11565b610b34565b5b6105fe576040517f08c379a00000000000000000000000000000000000000000000000000000000081526004016105f590612950565b60405180910390fd5b6106088383610d19565b505050565b6000600880549050905090565b61062b610625610d11565b82610dd2565b61066a576040517f08c379a0000000000000000000000000000000000000000000000000000000008152600401610661906129e2565b60405180910390fd5b610675838383610e67565b505050565b600061068583610922565b82106106c6576040517f08c379a00000000000000000000000000000000000000000000000000000000081526004016106bd90612a74565b60405180910390fd5b600660008473ffffffffffffffffffffffffffffffffffffffff1673ffffffffffffffffffffffffffffffffffffffff168152602001908152602001600020600083815260200190815260200160002054905092915050565b60008061072c600c6110ce565b9050610738600c6110dc565b61074283826110f2565b6107d681600d80546107539061281a565b80601f016020809104026020016040519081016040528092919081815260200182805461077f9061281a565b80156107cc5780601f106107a1576101008083540402835291602001916107cc565b820191906000526020600020905b8154815290600101906020018083116107af57829003601f168201915b5050505050611110565b80915050919050565b6107fa83838360405180602001604052806000815250610ac0565b505050565b600061080961060d565b821061084a576040517f08c379a000000000000000000000000000000000000000000000000000000000815260040161084190612b06565b60405180910390fd5b6008828154811061085e5761085d612b26565b5b90600052602060002001549050919050565b6000806002600084815260200190815260200160002060009054906101000a900473ffffffffffffffffffffffffffffffffffffffff169050600073ffffffffffffffffffffffffffffffffffffffff168173ffffffffffffffffffffffffffffffffffffffff161415610919576040517f08c379a000000000000000000000000000000000000000000000000000000000815260040161091090612ba1565b60405180910390fd5b80915050919050565b60008073ffffffffffffffffffffffffffffffffffffffff168273ffffffffffffffffffffffffffffffffffffffff161415610993576040517f08c379a000000000000000000000000000000000000000000000000000000000815260040161098a90612c33565b60405180910390fd5b600360008373ffffffffffffffffffffffffffffffffffffffff1673ffffffffffffffffffffffffffffffffffffffff168152602001908152602001600020549050919050565b6109e2611184565b6109ec6000611202565b565b6000600b60009054906101000a900473ffffffffffffffffffffffffffffffffffffffff16905090565b606060018054610a279061281a565b80601f0160208091040260200160405190810160405280929190818152602001828054610a539061281a565b8015610aa05780601f10610a7557610100808354040283529160200191610aa0565b820191906000526020600020905b815481529060010190602001808311610a8357829003601f168201915b5050505050905090565b610abc610ab5610d11565b83836112c8565b5050565b610ad1610acb610d11565b83610dd2565b610b10576040517f08c379a0000000000000000000000000000000000000000000000000000000008152600401610b07906129e2565b60405180910390fd5b610b1c84848484611435565b50505050565b6060610b2d82611491565b9050919050565b6000600560008473ffffffffffffffffffffffffffffffffffffffff1673ffffffffffffffffffffffffffffffffffffffff16815260200190815260200160002060008373ffffffffffffffffffffffffffffffffffffffff1673ffffffffffffffffffffffffffffffffffffffff16815260200190815260200160002060009054906101000a900460ff16905092915050565b610bd0611184565b600073ffffffffffffffffffffffffffffffffffffffff168173ffffffffffffffffffffffffffffffffffffffff161415610c40576040517f08c379a0000000000000000000000000000000000000000000000000000000008152600401610c3790612cc5565b60405180910390fd5b610c4981611202565b50565b60007f780e9d63000000000000000000000000000000000000000000000000000000007bffffffffffffffffffffffffffffffffffffffffffffffffffffffff1916827bffffffffffffffffffffffffffffffffffffffffffffffffffffffff19161480610cbf5750610cbe826115a4565b5b9050919050565b610ccf81611686565b610d0e576040517f08c379a0000000000000000000000000000000000000000000000000000000008152600401610d0590612ba1565b60405180910390fd5b50565b600033905090565b816004600083815260200190815260200160002060006101000a81548173ffffffffffffffffffffffffffffffffffffffff021916908373ffffffffffffffffffffffffffffffffffffffff160217905550808273ffffffffffffffffffffffffffffffffffffffff16610d8c83610870565b73ffffffffffffffffffffffffffffffffffffffff167f8c5be1e5ebec7d5bd14f71427d1e84f3dd0314c0f7b2291e5b200ac8c7c3b92560405160405180910390a45050565b600080610dde83610870565b90508073ffffffffffffffffffffffffffffffffffffffff168473ffffffffffffffffffffffffffffffffffffffff161480610e205750610e1f8185610b34565b5b80610e5e57508373ffffffffffffffffffffffffffffffffffffffff16610e46846104af565b73ffffffffffffffffffffffffffffffffffffffff16145b91505092915050565b8273ffffffffffffffffffffffffffffffffffffffff16610e8782610870565b73ffffffffffffffffffffffffffffffffffffffff1614610edd576040517f08c379a0000000000000000000000000000000000000000000000000000000008152600401610ed490612d57565b60405180910390fd5b600073ffffffffffffffffffffffffffffffffffffffff168273ffffffffffffffffffffffffffffffffffffffff161415610f4d576040517f08c379a0000000000000000000000000000000000000000000000000000000008152600401610f4490612de9565b60405180910390fd5b610f588383836116f2565b610f63600082610d19565b6001600360008573ffffffffffffffffffffffffffffffffffffffff1673ffffffffffffffffffffffffffffffffffffffff1681526020019081526020016000206000828254610fb39190612e38565b925050819055506001600360008473ffffffffffffffffffffffffffffffffffffffff1673ffffffffffffffffffffffffffffffffffffffff168152602001908152602001600020600082825461100a9190612e6c565b92505081905550816002600083815260200190815260200160002060006101000a81548173ffffffffffffffffffffffffffffffffffffffff021916908373ffffffffffffffffffffffffffffffffffffffff160217905550808273ffffffffffffffffffffffffffffffffffffffff168473ffffffffffffffffffffffffffffffffffffffff167fddf252ad1be2c89b69c2b068fc378daa952ba7f163c4a11628f55a4df523b3ef60405160405180910390a46110c9838383611702565b505050565b600081600001549050919050565b6001816000016000828254019250508190555050565b61110c828260405180602001604052806000815250611707565b5050565b61111982611686565b611158576040517f08c379a000000000000000000000000000000000000000000000000000000000815260040161114f90612f34565b60405180910390fd5b80600a6000848152602001908152602001600020908051906020019061117f929190612185565b505050565b61118c610d11565b73ffffffffffffffffffffffffffffffffffffffff166111aa6109ee565b73ffffffffffffffffffffffffffffffffffffffff1614611200576040517f08c379a00000000000000000000000000000000000000000000000000000000081526004016111f790612fa0565b60405180910390fd5b565b6000600b60009054906101000a900473ffffffffffffffffffffffffffffffffffffffff16905081600b60006101000a81548173ffffffffffffffffffffffffffffffffffffffff021916908373ffffffffffffffffffffffffffffffffffffffff1602179055508173ffffffffffffffffffffffffffffffffffffffff168173ffffffffffffffffffffffffffffffffffffffff167f8be0079c531659141344cd1fd0a4f28419497f9722a3daafe3b4186f6b6457e060405160405180910390a35050565b8173ffffffffffffffffffffffffffffffffffffffff168373ffffffffffffffffffffffffffffffffffffffff161415611337576040517f08c379a000000000000000000000000000000000000000000000000000000000815260040161132e9061300c565b60405180910390fd5b80600560008573ffffffffffffffffffffffffffffffffffffffff1673ffffffffffffffffffffffffffffffffffffffff16815260200190815260200160002060008473ffffffffffffffffffffffffffffffffffffffff1673ffffffffffffffffffffffffffffffffffffffff16815260200190815260200160002060006101000a81548160ff0219169083151502179055508173ffffffffffffffffffffffffffffffffffffffff168373ffffffffffffffffffffffffffffffffffffffff167f17307eab39ab6107e8899845ad3d59bd9653f200f220920489ca2b5937696c318360405161142891906122dc565b60405180910390a3505050565b611440848484610e67565b61144c84848484611762565b61148b576040517f08c379a00000000000000000000000000000000000000000000000000000000081526004016114829061309e565b60405180910390fd5b50505050565b606061149c82610cc6565b6000600a600084815260200190815260200160002080546114bc9061281a565b80601f01602080910402602001604051908101604052809291908181526020018280546114e89061281a565b80156115355780601f1061150a57610100808354040283529160200191611535565b820191906000526020600020905b81548152906001019060200180831161151857829003601f168201915b5050505050905060006115466118f9565b905060008151141561155c57819250505061159f565b6000825111156115915780826040516020016115799291906130fa565b6040516020818303038152906040529250505061159f565b61159a84611936565b925050505b919050565b60007f80ac58cd000000000000000000000000000000000000000000000000000000007bffffffffffffffffffffffffffffffffffffffffffffffffffffffff1916827bffffffffffffffffffffffffffffffffffffffffffffffffffffffff1916148061166f57507f5b5e139f000000000000000000000000000000000000000000000000000000007bffffffffffffffffffffffffffffffffffffffffffffffffffffffff1916827bffffffffffffffffffffffffffffffffffffffffffffffffffffffff1916145b8061167f575061167e8261199e565b5b9050919050565b60008073ffffffffffffffffffffffffffffffffffffffff166002600084815260200190815260200160002060009054906101000a900473ffffffffffffffffffffffffffffffffffffffff1673ffffffffffffffffffffffffffffffffffffffff1614159050919050565b6116fd838383611a08565b505050565b505050565b6117118383611b1c565b61171e6000848484611762565b61175d576040517f08c379a00000000000000000000000000000000000000000000000000000000081526004016117549061309e565b60405180910390fd5b505050565b60006117838473ffffffffffffffffffffffffffffffffffffffff16611cf6565b156118ec578373ffffffffffffffffffffffffffffffffffffffff1663150b7a026117ac610d11565b8786866040518563ffffffff1660e01b81526004016117ce9493929190613173565b602060405180830381600087803b1580156117e857600080fd5b505af192505050801561181957506040513d601f19601f8201168201806040525081019061181691906131d4565b60015b61189c573d8060008114611849576040519150601f19603f3d011682016040523d82523d6000602084013e61184e565b606091505b50600081511415611894576040517f08c379a000000000000000000000000000000000000000000000000000000000815260040161188b9061309e565b60405180910390fd5b805181602001fd5b63150b7a0260e01b7bffffffffffffffffffffffffffffffffffffffffffffffffffffffff1916817bffffffffffffffffffffffffffffffffffffffffffffffffffffffff1916149150506118f1565b600190505b949350505050565b60606040518060400160405280600781526020017f697066733a2f2f00000000000000000000000000000000000000000000000000815250905090565b606061194182610cc6565b600061194b6118f9565b9050600081511161196b5760405180602001604052806000815250611996565b8061197584611d19565b6040516020016119869291906130fa565b6040516020818303038152906040525b915050919050565b60007f01ffc9a7000000000000000000000000000000000000000000000000000000007bffffffffffffffffffffffffffffffffffffffffffffffffffffffff1916827bffffffffffffffffffffffffffffffffffffffffffffffffffffffff1916149050919050565b611a13838383611e7a565b600073ffffffffffffffffffffffffffffffffffffffff168373ffffffffffffffffffffffffffffffffffffffff161415611a5657611a5181611e7f565b611a95565b8173ffffffffffffffffffffffffffffffffffffffff168373ffffffffffffffffffffffffffffffffffffffff1614611a9457611a938382611ec8565b5b5b600073ffffffffffffffffffffffffffffffffffffffff168273ffffffffffffffffffffffffffffffffffffffff161415611ad857611ad381612035565b611b17565b8273ffffffffffffffffffffffffffffffffffffffff168273ffffffffffffffffffffffffffffffffffffffff1614611b1657611b158282612106565b5b5b505050565b600073ffffffffffffffffffffffffffffffffffffffff168273ffffffffffffffffffffffffffffffffffffffff161415611b8c576040517f08c379a0000000000000000000000000000000000000000000000000000000008152600401611b839061324d565b60405180910390fd5b611b9581611686565b15611bd5576040517f08c379a0000000000000000000000000000000000000000000000000000000008152600401611bcc906132b9565b60405180910390fd5b611be1600083836116f2565b6001600360008473ffffffffffffffffffffffffffffffffffffffff1673ffffffffffffffffffffffffffffffffffffffff1681526020019081526020016000206000828254611c319190612e6c565b92505081905550816002600083815260200190815260200160002060006101000a81548173ffffffffffffffffffffffffffffffffffffffff021916908373ffffffffffffffffffffffffffffffffffffffff160217905550808273ffffffffffffffffffffffffffffffffffffffff16600073ffffffffffffffffffffffffffffffffffffffff167fddf252ad1be2c89b69c2b068fc378daa952ba7f163c4a11628f55a4df523b3ef60405160405180910390a4611cf260008383611702565b5050565b6000808273ffffffffffffffffffffffffffffffffffffffff163b119050919050565b60606000821415611d61576040518060400160405280600181526020017f30000000000000000000000000000000000000000000000000000000000000008152509050611e75565b600082905060005b60008214611d93578080611d7c906132d9565b915050600a82611d8c9190613351565b9150611d69565b60008167ffffffffffffffff811115611daf57611dae6125fd565b5b6040519080825280601f01601f191660200182016040528015611de15781602001600182028036833780820191505090505b5090505b60008514611e6e57600182611dfa9190612e38565b9150600a85611e099190613382565b6030611e159190612e6c565b60f81b818381518110611e2b57611e2a612b26565b5b60200101907effffffffffffffffffffffffffffffffffffffffffffffffffffffffffffff1916908160001a905350600a85611e679190613351565b9450611de5565b8093505050505b919050565b505050565b6008805490506009600083815260200190815260200160002081905550600881908060018154018082558091505060019003906000526020600020016000909190919091505550565b60006001611ed584610922565b611edf9190612e38565b9050600060076000848152602001908152602001600020549050818114611fc4576000600660008673ffffffffffffffffffffffffffffffffffffffff1673ffffffffffffffffffffffffffffffffffffffff168152602001908152602001600020600084815260200190815260200160002054905080600660008773ffffffffffffffffffffffffffffffffffffffff1673ffffffffffffffffffffffffffffffffffffffff168152602001908152602001600020600084815260200190815260200160002081905550816007600083815260200190815260200160002081905550505b6007600084815260200190815260200160002060009055600660008573ffffffffffffffffffffffffffffffffffffffff1673ffffffffffffffffffffffffffffffffffffffff16815260200190815260200160002060008381526020019081526020016000206000905550505050565b600060016008805490506120499190612e38565b905060006009600084815260200190815260200160002054905060006008838154811061207957612078612b26565b5b90600052602060002001549050806008838154811061209b5761209a612b26565b5b9060005260206000200181905550816009600083815260200190815260200160002081905550600960008581526020019081526020016000206000905560088054806120ea576120e96133b3565b5b6001900381819060005260206000200160009055905550505050565b600061211183610922565b905081600660008573ffffffffffffffffffffffffffffffffffffffff1673ffffffffffffffffffffffffffffffffffffffff168152602001908152602001600020600083815260200190815260200160002081905550806007600084815260200190815260200160002081905550505050565b8280546121919061281a565b90600052602060002090601f0160209004810192826121b357600085556121fa565b82601f106121cc57805160ff19168380011785556121fa565b828001600101855582156121fa579182015b828111156121f95782518255916020019190600101906121de565b5b509050612207919061220b565b5090565b5b8082111561222457600081600090555060010161220c565b5090565b6000604051905090565b600080fd5b600080fd5b60007fffffffff0000000000000000000000000000000000000000000000000000000082169050919050565b6122718161223c565b811461227c57600080fd5b50565b60008135905061228e81612268565b92915050565b6000602082840312156122aa576122a9612232565b5b60006122b88482850161227f565b91505092915050565b60008115159050919050565b6122d6816122c1565b82525050565b60006020820190506122f160008301846122cd565b92915050565b600081519050919050565b600082825260208201905092915050565b60005b83811015612331578082015181840152602081019050612316565b83811115612340576000848401525b50505050565b6000601f19601f8301169050919050565b6000612362826122f7565b61236c8185612302565b935061237c818560208601612313565b61238581612346565b840191505092915050565b600060208201905081810360008301526123aa8184612357565b905092915050565b6000819050919050565b6123c5816123b2565b81146123d057600080fd5b50565b6000813590506123e2816123bc565b92915050565b6000602082840312156123fe576123fd612232565b5b600061240c848285016123d3565b91505092915050565b600073ffffffffffffffffffffffffffffffffffffffff82169050919050565b600061244082612415565b9050919050565b61245081612435565b82525050565b600060208201905061246b6000830184612447565b92915050565b61247a81612435565b811461248557600080fd5b50565b60008135905061249781612471565b92915050565b600080604083850312156124b4576124b3612232565b5b60006124c285828601612488565b92505060206124d3858286016123d3565b9150509250929050565b6124e6816123b2565b82525050565b600060208201905061250160008301846124dd565b92915050565b6000806000606084860312156125205761251f612232565b5b600061252e86828701612488565b935050602061253f86828701612488565b9250506040612550868287016123d3565b9150509250925092565b6000602082840312156125705761256f612232565b5b600061257e84828501612488565b91505092915050565b612590816122c1565b811461259b57600080fd5b50565b6000813590506125ad81612587565b92915050565b600080604083850312156125ca576125c9612232565b5b60006125d885828601612488565b92505060206125e98582860161259e565b9150509250929050565b600080fd5b600080fd5b7f4e487b7100000000000000000000000000000000000000000000000000000000600052604160045260246000fd5b61263582612346565b810181811067ffffffffffffffff82111715612654576126536125fd565b5b80604052505050565b6000612667612228565b9050612673828261262c565b919050565b600067ffffffffffffffff821115612693576126926125fd565b5b61269c82612346565b9050602081019050919050565b82818337600083830152505050565b60006126cb6126c684612678565b61265d565b9050828152602081018484840111156126e7576126e66125f8565b5b6126f28482856126a9565b509392505050565b600082601f83011261270f5761270e6125f3565b5b813561271f8482602086016126b8565b91505092915050565b6000806000806080858703121561274257612741612232565b5b600061275087828801612488565b945050602061276187828801612488565b9350506040612772878288016123d3565b925050606085013567ffffffffffffffff81111561279357612792612237565b5b61279f878288016126fa565b91505092959194509250565b600080604083850312156127c2576127c1612232565b5b60006127d085828601612488565b92505060206127e185828601612488565b9150509250929050565b7f4e487b7100000000000000000000000000000000000000000000000000000000600052602260045260246000fd5b6000600282049050600182168061283257607f821691505b60208210811415612846576128456127eb565b5b50919050565b7f4552433732313a20617070726f76616c20746f2063757272656e74206f776e6560008201527f7200000000000000000000000000000000000000000000000000000000000000602082015250565b60006128a8602183612302565b91506128b38261284c565b604082019050919050565b600060208201905081810360008301526128d78161289b565b9050919050565b7f4552433732313a20617070726f76652063616c6c6572206973206e6f7420746f60008201527f6b656e206f776e6572206e6f7220617070726f76656420666f7220616c6c0000602082015250565b600061293a603e83612302565b9150612945826128de565b604082019050919050565b600060208201905081810360008301526129698161292d565b9050919050565b7f4552433732313a2063616c6c6572206973206e6f7420746f6b656e206f776e6560008201527f72206e6f7220617070726f766564000000000000000000000000000000000000602082015250565b60006129cc602e83612302565b91506129d782612970565b604082019050919050565b600060208201905081810360008301526129fb816129bf565b9050919050565b7f455243373231456e756d657261626c653a206f776e657220696e646578206f7560008201527f74206f6620626f756e6473000000000000000000000000000000000000000000602082015250565b6000612a5e602b83612302565b9150612a6982612a02565b604082019050919050565b60006020820190508181036000830152612a8d81612a51565b9050919050565b7f455243373231456e756d657261626c653a20676c6f62616c20696e646578206f60008201527f7574206f6620626f756e64730000000000000000000000000000000000000000602082015250565b6000612af0602c83612302565b9150612afb82612a94565b604082019050919050565b60006020820190508181036000830152612b1f81612ae3565b9050919050565b7f4e487b7100000000000000000000000000000000000000000000000000000000600052603260045260246000fd5b7f4552433732313a20696e76616c696420746f6b656e2049440000000000000000600082015250565b6000612b8b601883612302565b9150612b9682612b55565b602082019050919050565b60006020820190508181036000830152612bba81612b7e565b9050919050565b7f4552433732313a2061646472657373207a65726f206973206e6f74206120766160008201527f6c6964206f776e65720000000000000000000000000000000000000000000000602082015250565b6000612c1d602983612302565b9150612c2882612bc1565b604082019050919050565b60006020820190508181036000830152612c4c81612c10565b9050919050565b7f4f776e61626c653a206e6577206f776e657220697320746865207a65726f206160008201527f6464726573730000000000000000000000000000000000000000000000000000602082015250565b6000612caf602683612302565b9150612cba82612c53565b604082019050919050565b60006020820190508181036000830152612cde81612ca2565b9050919050565b7f4552433732313a207472616e736665722066726f6d20696e636f72726563742060008201527f6f776e6572000000000000000000000000000000000000000000000000000000602082015250565b6000612d41602583612302565b9150612d4c82612ce5565b604082019050919050565b60006020820190508181036000830152612d7081612d34565b9050919050565b7f4552433732313a207472616e7366657220746f20746865207a65726f2061646460008201527f7265737300000000000000000000000000000000000000000000000000000000602082015250565b6000612dd3602483612302565b9150612dde82612d77565b604082019050919050565b60006020820190508181036000830152612e0281612dc6565b9050919050565b7f4e487b7100000000000000000000000000000000000000000000000000000000600052601160045260246000fd5b6000612e43826123b2565b9150612e4e836123b2565b925082821015612e6157612e60612e09565b5b828203905092915050565b6000612e77826123b2565b9150612e82836123b2565b9250827fffffffffffffffffffffffffffffffffffffffffffffffffffffffffffffffff03821115612eb757612eb6612e09565b5b828201905092915050565b7f45524337323155524953746f726167653a2055524920736574206f66206e6f6e60008201527f6578697374656e7420746f6b656e000000000000000000000000000000000000602082015250565b6000612f1e602e83612302565b9150612f2982612ec2565b604082019050919050565b60006020820190508181036000830152612f4d81612f11565b9050919050565b7f4f776e61626c653a2063616c6c6572206973206e6f7420746865206f776e6572600082015250565b6000612f8a602083612302565b9150612f9582612f54565b602082019050919050565b60006020820190508181036000830152612fb981612f7d565b9050919050565b7f4552433732313a20617070726f766520746f2063616c6c657200000000000000600082015250565b6000612ff6601983612302565b915061300182612fc0565b602082019050919050565b6000602082019050818103600083015261302581612fe9565b9050919050565b7f4552433732313a207472616e7366657220746f206e6f6e20455243373231526560008201527f63656976657220696d706c656d656e7465720000000000000000000000000000602082015250565b6000613088603283612302565b91506130938261302c565b604082019050919050565b600060208201905081810360008301526130b78161307b565b9050919050565b600081905092915050565b60006130d4826122f7565b6130de81856130be565b93506130ee818560208601612313565b80840191505092915050565b600061310682856130c9565b915061311282846130c9565b91508190509392505050565b600081519050919050565b600082825260208201905092915050565b60006131458261311e565b61314f8185613129565b935061315f818560208601612313565b61316881612346565b840191505092915050565b60006080820190506131886000830187612447565b6131956020830186612447565b6131a260408301856124dd565b81810360608301526131b4818461313a565b905095945050505050565b6000815190506131ce81612268565b92915050565b6000602082840312156131ea576131e9612232565b5b60006131f8848285016131bf565b91505092915050565b7f4552433732313a206d696e7420746f20746865207a65726f2061646472657373600082015250565b6000613237602083612302565b915061324282613201565b602082019050919050565b600060208201905081810360008301526132668161322a565b9050919050565b7f4552433732313a20746f6b656e20616c7265616479206d696e74656400000000600082015250565b60006132a3601c83612302565b91506132ae8261326d565b602082019050919050565b600060208201905081810360008301526132d281613296565b9050919050565b60006132e4826123b2565b91507fffffffffffffffffffffffffffffffffffffffffffffffffffffffffffffffff82141561331757613316612e09565b5b600182019050919050565b7f4e487b7100000000000000000000000000000000000000000000000000000000600052601260045260246000fd5b600061335c826123b2565b9150613367836123b2565b92508261337757613376613322565b5b828204905092915050565b600061338d826123b2565b9150613398836123b2565b9250826133a8576133a7613322565b5b828206905092915050565b7f4e487b7100000000000000000000000000000000000000000000000000000000600052603160045260246000fdfea2646970667358221220551908af44a7a5a945134dbff7618e4663b6b64b2bc922809dd58dce41ddf4fd64736f6c634300080900336261667962656962787265696f6f71626269796872636f78647137326f77636c3233616d70336e7764777732726536637a376b66763377667a73612f66756e64732d6d657461646174612e6a736f6e",
  "linkReferences": {},
  "deployedLinkReferences": {}
}