{
  "_format": "hh-sol-artifact-1",
  "contractName": "MagicWorld",
  "sourceName": "contracts/MagicWorld.sol",
  "abi": [
    {
      "inputs": [],
      "stateMutability": "nonpayable",
      "type": "constructor"
    },
    {
      "anonymous": false,
      "inputs": [
        {
          "indexed": true,
          "internalType": "address",
          "name": "owner",
          "type": "address"
        },
        {
          "indexed": true,
          "internalType": "address",
          "name": "spender",
          "type": "address"
        },
        {
          "indexed": false,
          "internalType": "uint256",
          "name": "value",
          "type": "uint256"
        }
      ],
      "name": "Approval",
      "type": "event"
    },
    {
      "anonymous": false,
      "inputs": [
        {
          "indexed": true,
          "internalType": "address",
          "name": "delegator",
          "type": "address"
        },
        {
          "indexed": true,
          "internalType": "address",
          "name": "fromDelegate",
          "type": "address"
        },
        {
          "indexed": true,
          "internalType": "address",
          "name": "toDelegate",
          "type": "address"
        }
      ],
      "name": "DelegateChanged",
      "type": "event"
    },
    {
      "anonymous": false,
      "inputs": [
        {
          "indexed": true,
          "internalType": "address",
          "name": "delegate",
          "type": "address"
        },
        {
          "indexed": false,
          "internalType": "uint256",
          "name": "previousBalance",
          "type": "uint256"
        },
        {
          "indexed": false,
          "internalType": "uint256",
          "name": "newBalance",
          "type": "uint256"
        }
      ],
      "name": "DelegateVotesChanged",
      "type": "event"
    },
    {
      "anonymous": false,
      "inputs": [
        {
          "indexed": true,
          "internalType": "address",
          "name": "from",
          "type": "address"
        },
        {
          "indexed": true,
          "internalType": "address",
          "name": "to",
          "type": "address"
        },
        {
          "indexed": false,
          "internalType": "uint256",
          "name": "value",
          "type": "uint256"
        }
      ],
      "name": "Transfer",
      "type": "event"
    },
    {
      "anonymous": false,
      "inputs": [
        {
          "indexed": true,
          "internalType": "address",
          "name": "sender",
          "type": "address"
        },
        {
          "indexed": true,
          "internalType": "address",
          "name": "to",
          "type": "address"
        },
        {
          "indexed": false,
          "internalType": "uint256",
          "name": "amount",
          "type": "uint256"
        },
        {
          "indexed": false,
          "internalType": "string",
          "name": "message",
          "type": "string"
        }
      ],
      "name": "TransferMade",
      "type": "event"
    },
    {
      "inputs": [],
      "name": "DOMAIN_SEPARATOR",
      "outputs": [
        {
          "internalType": "bytes32",
          "name": "",
          "type": "bytes32"
        }
      ],
      "stateMutability": "view",
      "type": "function"
    },
    {
      "inputs": [
        {
          "internalType": "address",
          "name": "owner",
          "type": "address"
        },
        {
          "internalType": "address",
          "name": "spender",
          "type": "address"
        }
      ],
      "name": "allowance",
      "outputs": [
        {
          "internalType": "uint256",
          "name": "",
          "type": "uint256"
        }
      ],
      "stateMutability": "view",
      "type": "function"
    },
    {
      "inputs": [
        {
          "internalType": "address",
          "name": "spender",
          "type": "address"
        },
        {
          "internalType": "uint256",
          "name": "amount",
          "type": "uint256"
        }
      ],
      "name": "approve",
      "outputs": [
        {
          "internalType": "bool",
          "name": "",
          "type": "bool"
        }
      ],
      "stateMutability": "nonpayable",
      "type": "function"
    },
    {
      "inputs": [
        {
          "internalType": "address",
          "name": "account",
          "type": "address"
        }
      ],
      "name": "balanceOf",
      "outputs": [
        {
          "internalType": "uint256",
          "name": "",
          "type": "uint256"
        }
      ],
      "stateMutability": "view",
      "type": "function"
    },
    {
      "inputs": [
        {
          "internalType": "address",
          "name": "account",
          "type": "address"
        },
        {
          "internalType": "uint32",
          "name": "pos",
          "type": "uint32"
        }
      ],
      "name": "checkpoints",
      "outputs": [
        {
          "components": [
            {
              "internalType": "uint32",
              "name": "fromBlock",
              "type": "uint32"
            },
            {
              "internalType": "uint224",
              "name": "votes",
              "type": "uint224"
            }
          ],
          "internalType": "struct ERC20Votes.Checkpoint",
          "name": "",
          "type": "tuple"
        }
      ],
      "stateMutability": "view",
      "type": "function"
    },
    {
      "inputs": [],
      "name": "decimals",
      "outputs": [
        {
          "internalType": "uint8",
          "name": "",
          "type": "uint8"
        }
      ],
      "stateMutability": "view",
      "type": "function"
    },
    {
      "inputs": [
        {
          "internalType": "address",
          "name": "spender",
          "type": "address"
        },
        {
          "internalType": "uint256",
          "name": "subtractedValue",
          "type": "uint256"
        }
      ],
      "name": "decreaseAllowance",
      "outputs": [
        {
          "internalType": "bool",
          "name": "",
          "type": "bool"
        }
      ],
      "stateMutability": "nonpayable",
      "type": "function"
    },
    {
      "inputs": [
        {
          "internalType": "address",
          "name": "delegatee",
          "type": "address"
        }
      ],
      "name": "delegate",
      "outputs": [],
      "stateMutability": "nonpayable",
      "type": "function"
    },
    {
      "inputs": [
        {
          "internalType": "address",
          "name": "delegatee",
          "type": "address"
        },
        {
          "internalType": "uint256",
          "name": "nonce",
          "type": "uint256"
        },
        {
          "internalType": "uint256",
          "name": "expiry",
          "type": "uint256"
        },
        {
          "internalType": "uint8",
          "name": "v",
          "type": "uint8"
        },
        {
          "internalType": "bytes32",
          "name": "r",
          "type": "bytes32"
        },
        {
          "internalType": "bytes32",
          "name": "s",
          "type": "bytes32"
        }
      ],
      "name": "delegateBySig",
      "outputs": [],
      "stateMutability": "nonpayable",
      "type": "function"
    },
    {
      "inputs": [
        {
          "internalType": "address",
          "name": "account",
          "type": "address"
        }
      ],
      "name": "delegates",
      "outputs": [
        {
          "internalType": "address",
          "name": "",
          "type": "address"
        }
      ],
      "stateMutability": "view",
      "type": "function"
    },
    {
      "inputs": [
        {
          "internalType": "uint256",
          "name": "blockNumber",
          "type": "uint256"
        }
      ],
      "name": "getPastTotalSupply",
      "outputs": [
        {
          "internalType": "uint256",
          "name": "",
          "type": "uint256"
        }
      ],
      "stateMutability": "view",
      "type": "function"
    },
    {
      "inputs": [
        {
          "internalType": "address",
          "name": "account",
          "type": "address"
        },
        {
          "internalType": "uint256",
          "name": "blockNumber",
          "type": "uint256"
        }
      ],
      "name": "getPastVotes",
      "outputs": [
        {
          "internalType": "uint256",
          "name": "",
          "type": "uint256"
        }
      ],
      "stateMutability": "view",
      "type": "function"
    },
    {
      "inputs": [
        {
          "internalType": "address",
          "name": "account",
          "type": "address"
        }
      ],
      "name": "getVotes",
      "outputs": [
        {
          "internalType": "uint256",
          "name": "",
          "type": "uint256"
        }
      ],
      "stateMutability": "view",
      "type": "function"
    },
    {
      "inputs": [
        {
          "internalType": "address",
          "name": "spender",
          "type": "address"
        },
        {
          "internalType": "uint256",
          "name": "addedValue",
          "type": "uint256"
        }
      ],
      "name": "increaseAllowance",
      "outputs": [
        {
          "internalType": "bool",
          "name": "",
          "type": "bool"
        }
      ],
      "stateMutability": "nonpayable",
      "type": "function"
    },
    {
      "inputs": [],
      "name": "name",
      "outputs": [
        {
          "internalType": "string",
          "name": "",
          "type": "string"
        }
      ],
      "stateMutability": "view",
      "type": "function"
    },
    {
      "inputs": [
        {
          "internalType": "address",
          "name": "owner",
          "type": "address"
        }
      ],
      "name": "nonces",
      "outputs": [
        {
          "internalType": "uint256",
          "name": "",
          "type": "uint256"
        }
      ],
      "stateMutability": "view",
      "type": "function"
    },
    {
      "inputs": [
        {
          "internalType": "address",
          "name": "account",
          "type": "address"
        }
      ],
      "name": "numCheckpoints",
      "outputs": [
        {
          "internalType": "uint32",
          "name": "",
          "type": "uint32"
        }
      ],
      "stateMutability": "view",
      "type": "function"
    },
    {
      "inputs": [
        {
          "internalType": "address",
          "name": "owner",
          "type": "address"
        },
        {
          "internalType": "address",
          "name": "spender",
          "type": "address"
        },
        {
          "internalType": "uint256",
          "name": "value",
          "type": "uint256"
        },
        {
          "internalType": "uint256",
          "name": "deadline",
          "type": "uint256"
        },
        {
          "internalType": "uint8",
          "name": "v",
          "type": "uint8"
        },
        {
          "internalType": "bytes32",
          "name": "r",
          "type": "bytes32"
        },
        {
          "internalType": "bytes32",
          "name": "s",
          "type": "bytes32"
        }
      ],
      "name": "permit",
      "outputs": [],
      "stateMutability": "nonpayable",
      "type": "function"
    },
    {
      "inputs": [],
      "name": "symbol",
      "outputs": [
        {
          "internalType": "string",
          "name": "",
          "type": "string"
        }
      ],
      "stateMutability": "view",
      "type": "function"
    },
    {
      "inputs": [],
      "name": "totalSupply",
      "outputs": [
        {
          "internalType": "uint256",
          "name": "",
          "type": "uint256"
        }
      ],
      "stateMutability": "view",
      "type": "function"
    },
    {
      "inputs": [
        {
          "internalType": "address",
          "name": "to",
          "type": "address"
        },
        {
          "internalType": "uint256",
          "name": "amount",
          "type": "uint256"
        }
      ],
      "name": "transfer",
      "outputs": [
        {
          "internalType": "bool",
          "name": "",
          "type": "bool"
        }
      ],
      "stateMutability": "nonpayable",
      "type": "function"
    },
    {
      "inputs": [
        {
          "internalType": "address",
          "name": "from",
          "type": "address"
        },
        {
          "internalType": "address",
          "name": "to",
          "type": "address"
        },
        {
          "internalType": "uint256",
          "name": "amount",
          "type": "uint256"
        }
      ],
      "name": "transferFrom",
      "outputs": [
        {
          "internalType": "bool",
          "name": "",
          "type": "bool"
        }
      ],
      "stateMutability": "nonpayable",
      "type": "function"
    }
  ],
  "bytecode": "0x6101406040523480156200001257600080fd5b506040518060400160405280600b81526020017f4d6167696320576f726c64000000000000000000000000000000000000000000815250806040518060400160405280600181526020017f31000000000000000000000000000000000000000000000000000000000000008152506040518060400160405280600b81526020017f4d6167696320576f726c640000000000000000000000000000000000000000008152506040518060400160405280600381526020017f4d4757000000000000000000000000000000000000000000000000000000000081525081600390805190602001906200010492919062000bec565b5080600490805190602001906200011d92919062000bec565b50505060008280519060200120905060008280519060200120905060007f8b73c3c69bb8fe3d512ecc4cf759cc79239f7b179b0ffacaa9a75d522b39400f90508260e081815250508161010081815250504660a08181525050620001898184846200021860201b60201c565b608081815250503073ffffffffffffffffffffffffffffffffffffffff1660c08173ffffffffffffffffffffffffffffffffffffffff16815250508061012081815250505050505050506200021233620001e86200025460201b60201c565b600a620001f6919062000e36565b620f424062000206919062000e87565b6200025d60201b60201c565b620013f9565b600083838346306040516020016200023595949392919062000f59565b6040516020818303038152906040528051906020012090509392505050565b60006012905090565b6200027482826200027860201b62000e7b1760201c565b5050565b6200028f82826200033660201b62000f081760201c565b6200029f620004af60201b60201c565b7bffffffffffffffffffffffffffffffffffffffffffffffffffffffff16620002cd620004d360201b60201c565b111562000311576040517f08c379a000000000000000000000000000000000000000000000000000000000815260040162000308906200103d565b60405180910390fd5b620003306009620004dd60201b620010681783620004f560201b60201c565b50505050565b600073ffffffffffffffffffffffffffffffffffffffff168273ffffffffffffffffffffffffffffffffffffffff161415620003a9576040517f08c379a0000000000000000000000000000000000000000000000000000000008152600401620003a090620010af565b60405180910390fd5b620003bd60008383620007a660201b60201c565b8060026000828254620003d19190620010d1565b92505081905550806000808473ffffffffffffffffffffffffffffffffffffffff1673ffffffffffffffffffffffffffffffffffffffff1681526020019081526020016000206000828254620004289190620010d1565b925050819055508173ffffffffffffffffffffffffffffffffffffffff16600073ffffffffffffffffffffffffffffffffffffffff167fddf252ad1be2c89b69c2b068fc378daa952ba7f163c4a11628f55a4df523b3ef836040516200048f91906200112e565b60405180910390a3620004ab60008383620007ab60201b60201c565b5050565b60007bffffffffffffffffffffffffffffffffffffffffffffffffffffffff905090565b6000600254905090565b60008183620004ed9190620010d1565b905092915050565b600080600085805490509050600081146200056a57856001826200051a91906200114b565b815481106200052e576200052d62001186565b5b9060005260206000200160000160049054906101000a90047bffffffffffffffffffffffffffffffffffffffffffffffffffffffff166200056d565b60005b7bffffffffffffffffffffffffffffffffffffffffffffffffffffffff1692506200059983858760201c565b9150600081118015620005f257504386600183620005b891906200114b565b81548110620005cc57620005cb62001186565b5b9060005260206000200160000160009054906101000a900463ffffffff1663ffffffff16145b1562000693576200060e826200082f60201b6200107e1760201c565b866001836200061e91906200114b565b8154811062000632576200063162001186565b5b9060005260206000200160000160046101000a8154817bffffffffffffffffffffffffffffffffffffffffffffffffffffffff02191690837bffffffffffffffffffffffffffffffffffffffffffffffffffffffff1602179055506200079d565b856040518060400160405280620006b5436200089d60201b620010e91760201c565b63ffffffff168152602001620006d6856200082f60201b6200107e1760201c565b7bffffffffffffffffffffffffffffffffffffffffffffffffffffffff168152509080600181540180825580915050600190039060005260206000200160009091909190915060008201518160000160006101000a81548163ffffffff021916908363ffffffff16021790555060208201518160000160046101000a8154817bffffffffffffffffffffffffffffffffffffffffffffffffffffffff02191690837bffffffffffffffffffffffffffffffffffffffffffffffffffffffff16021790555050505b50935093915050565b505050565b620007c3838383620008f360201b6200113c1760201c565b8173ffffffffffffffffffffffffffffffffffffffff168373ffffffffffffffffffffffffffffffffffffffff167f108a1dcbe1a5dcdd5c51baa379dfe25ad988a0adccf1a7e028c1d4a0e32672218360405162000822919062001205565b60405180910390a3505050565b60007bffffffffffffffffffffffffffffffffffffffffffffffffffffffff801682111562000895576040517f08c379a00000000000000000000000000000000000000000000000000000000081526004016200088c90620012ad565b60405180910390fd5b819050919050565b600063ffffffff8016821115620008eb576040517f08c379a0000000000000000000000000000000000000000000000000000000008152600401620008e29062001345565b60405180910390fd5b819050919050565b6200090b8383836200094360201b620011671760201c565b6200093e62000920846200094860201b60201c565b62000931846200094860201b60201c565b83620009b160201b60201c565b505050565b505050565b6000600760008373ffffffffffffffffffffffffffffffffffffffff1673ffffffffffffffffffffffffffffffffffffffff16815260200190815260200160002060009054906101000a900473ffffffffffffffffffffffffffffffffffffffff169050919050565b8173ffffffffffffffffffffffffffffffffffffffff168373ffffffffffffffffffffffffffffffffffffffff1614158015620009ee5750600081115b1562000bcf57600073ffffffffffffffffffffffffffffffffffffffff168373ffffffffffffffffffffffffffffffffffffffff161462000ae15760008062000a88600860008773ffffffffffffffffffffffffffffffffffffffff1673ffffffffffffffffffffffffffffffffffffffff16815260200190815260200160002062000bd460201b6200116c1785620004f560201b60201c565b915091508473ffffffffffffffffffffffffffffffffffffffff167fdec2bacdd2f05b59de34da9b523dff8be42e5e38e818c82fdb0bae774387a724838360405162000ad692919062001367565b60405180910390a250505b600073ffffffffffffffffffffffffffffffffffffffff168273ffffffffffffffffffffffffffffffffffffffff161462000bce5760008062000b75600860008673ffffffffffffffffffffffffffffffffffffffff1673ffffffffffffffffffffffffffffffffffffffff168152602001908152602001600020620004dd60201b620010681785620004f560201b60201c565b915091508373ffffffffffffffffffffffffffffffffffffffff167fdec2bacdd2f05b59de34da9b523dff8be42e5e38e818c82fdb0bae774387a724838360405162000bc392919062001367565b60405180910390a250505b5b505050565b6000818362000be491906200114b565b905092915050565b82805462000bfa90620013c3565b90600052602060002090601f01602090048101928262000c1e576000855562000c6a565b82601f1062000c3957805160ff191683800117855562000c6a565b8280016001018555821562000c6a579182015b8281111562000c6957825182559160200191906001019062000c4c565b5b50905062000c79919062000c7d565b5090565b5b8082111562000c9857600081600090555060010162000c7e565b5090565b7f4e487b7100000000000000000000000000000000000000000000000000000000600052601160045260246000fd5b60008160011c9050919050565b6000808291508390505b600185111562000d2a5780860481111562000d025762000d0162000c9c565b5b600185161562000d125780820291505b808102905062000d228562000ccb565b945062000ce2565b94509492505050565b60008262000d45576001905062000e18565b8162000d55576000905062000e18565b816001811462000d6e576002811462000d795762000daf565b600191505062000e18565b60ff84111562000d8e5762000d8d62000c9c565b5b8360020a91508482111562000da85762000da762000c9c565b5b5062000e18565b5060208310610133831016604e8410600b841016171562000de95782820a90508381111562000de35762000de262000c9c565b5b62000e18565b62000df8848484600162000cd8565b9250905081840481111562000e125762000e1162000c9c565b5b81810290505b9392505050565b6000819050919050565b600060ff82169050919050565b600062000e438262000e1f565b915062000e508362000e29565b925062000e7f7fffffffffffffffffffffffffffffffffffffffffffffffffffffffffffffffff848462000d33565b905092915050565b600062000e948262000e1f565b915062000ea18362000e1f565b9250817fffffffffffffffffffffffffffffffffffffffffffffffffffffffffffffffff048311821515161562000edd5762000edc62000c9c565b5b828202905092915050565b6000819050919050565b62000efd8162000ee8565b82525050565b62000f0e8162000e1f565b82525050565b600073ffffffffffffffffffffffffffffffffffffffff82169050919050565b600062000f418262000f14565b9050919050565b62000f538162000f34565b82525050565b600060a08201905062000f70600083018862000ef2565b62000f7f602083018762000ef2565b62000f8e604083018662000ef2565b62000f9d606083018562000f03565b62000fac608083018462000f48565b9695505050505050565b600082825260208201905092915050565b7f4552433230566f7465733a20746f74616c20737570706c79207269736b73206f60008201527f766572666c6f77696e6720766f74657300000000000000000000000000000000602082015250565b60006200102560308362000fb6565b9150620010328262000fc7565b604082019050919050565b60006020820190508181036000830152620010588162001016565b9050919050565b7f45524332303a206d696e7420746f20746865207a65726f206164647265737300600082015250565b600062001097601f8362000fb6565b9150620010a4826200105f565b602082019050919050565b60006020820190508181036000830152620010ca8162001088565b9050919050565b6000620010de8262000e1f565b9150620010eb8362000e1f565b9250827fffffffffffffffffffffffffffffffffffffffffffffffffffffffffffffffff0382111562001123576200112262000c9c565b5b828201905092915050565b600060208201905062001145600083018462000f03565b92915050565b6000620011588262000e1f565b9150620011658362000e1f565b9250828210156200117b576200117a62000c9c565b5b828203905092915050565b7f4e487b7100000000000000000000000000000000000000000000000000000000600052603260045260246000fd5b7f41207472616e736665722068617070656e656421000000000000000000000000600082015250565b6000620011ed60148362000fb6565b9150620011fa82620011b5565b602082019050919050565b60006040820190506200121c600083018462000f03565b81810360208301526200122f81620011de565b905092915050565b7f53616665436173743a2076616c756520646f65736e27742066697420696e203260008201527f3234206269747300000000000000000000000000000000000000000000000000602082015250565b60006200129560278362000fb6565b9150620012a28262001237565b604082019050919050565b60006020820190508181036000830152620012c88162001286565b9050919050565b7f53616665436173743a2076616c756520646f65736e27742066697420696e203360008201527f3220626974730000000000000000000000000000000000000000000000000000602082015250565b60006200132d60268362000fb6565b91506200133a82620012cf565b604082019050919050565b6000602082019050818103600083015262001360816200131e565b9050919050565b60006040820190506200137e600083018562000f03565b6200138d602083018462000f03565b9392505050565b7f4e487b7100000000000000000000000000000000000000000000000000000000600052602260045260246000fd5b60006002820490506001821680620013dc57607f821691505b60208210811415620013f357620013f262001394565b5b50919050565b60805160a05160c05160e051610100516101205161380e620014496000396000611710015260006117520152600061173101526000611666015260006116bc015260006116e5015261380e6000f3fe608060405234801561001057600080fd5b50600436106101425760003560e01c806370a08231116100b8578063a457c2d71161007c578063a457c2d7146103d9578063a9059cbb14610409578063c3cda52014610439578063d505accf14610455578063dd62ed3e14610471578063f1127ed8146104a157610142565b806370a08231146102fb5780637ecebe001461032b5780638e539e8c1461035b57806395d89b411461038b5780639ab24eb0146103a957610142565b80633644e5151161010a5780633644e51514610201578063395093511461021f5780633a46b1a81461024f578063587cde1e1461027f5780635c19a95c146102af5780636fcfff45146102cb57610142565b806306fdde0314610147578063095ea7b31461016557806318160ddd1461019557806323b872dd146101b3578063313ce567146101e3575b600080fd5b61014f6104d1565b60405161015c91906123c4565b60405180910390f35b61017f600480360381019061017a919061247f565b610563565b60405161018c91906124da565b60405180910390f35b61019d610586565b6040516101aa9190612504565b60405180910390f35b6101cd60048036038101906101c8919061251f565b610590565b6040516101da91906124da565b60405180910390f35b6101eb6105bf565b6040516101f8919061258e565b60405180910390f35b6102096105c8565b60405161021691906125c2565b60405180910390f35b6102396004803603810190610234919061247f565b6105d7565b60405161024691906124da565b60405180910390f35b6102696004803603810190610264919061247f565b61060e565b6040516102769190612504565b60405180910390f35b610299600480360381019061029491906125dd565b6106a2565b6040516102a69190612619565b60405180910390f35b6102c960048036038101906102c491906125dd565b61070b565b005b6102e560048036038101906102e091906125dd565b61071f565b6040516102f29190612653565b60405180910390f35b610315600480360381019061031091906125dd565b610773565b6040516103229190612504565b60405180910390f35b610345600480360381019061034091906125dd565b6107bb565b6040516103529190612504565b60405180910390f35b6103756004803603810190610370919061266e565b61080b565b6040516103829190612504565b60405180910390f35b610393610861565b6040516103a091906123c4565b60405180910390f35b6103c360048036038101906103be91906125dd565b6108f3565b6040516103d09190612504565b60405180910390f35b6103f360048036038101906103ee919061247f565b610a04565b60405161040091906124da565b60405180910390f35b610423600480360381019061041e919061247f565b610a7b565b60405161043091906124da565b60405180910390f35b610453600480360381019061044e91906126f3565b610a9e565b005b61046f600480360381019061046a9190612780565b610ba2565b005b61048b60048036038101906104869190612822565b610ce4565b6040516104989190612504565b60405180910390f35b6104bb60048036038101906104b6919061288e565b610d6b565b6040516104c89190612943565b60405180910390f35b6060600380546104e09061298d565b80601f016020809104026020016040519081016040528092919081815260200182805461050c9061298d565b80156105595780601f1061052e57610100808354040283529160200191610559565b820191906000526020600020905b81548152906001019060200180831161053c57829003601f168201915b5050505050905090565b60008061056e611182565b905061057b81858561118a565b600191505092915050565b6000600254905090565b60008061059b611182565b90506105a8858285611355565b6105b38585856113e1565b60019150509392505050565b60006012905090565b60006105d2611662565b905090565b6000806105e2611182565b90506106038185856105f48589610ce4565b6105fe91906129ee565b61118a565b600191505092915050565b6000438210610652576040517f08c379a000000000000000000000000000000000000000000000000000000000815260040161064990612a90565b60405180910390fd5b61069a600860008573ffffffffffffffffffffffffffffffffffffffff1673ffffffffffffffffffffffffffffffffffffffff1681526020019081526020016000208361177c565b905092915050565b6000600760008373ffffffffffffffffffffffffffffffffffffffff1673ffffffffffffffffffffffffffffffffffffffff16815260200190815260200160002060009054906101000a900473ffffffffffffffffffffffffffffffffffffffff169050919050565b61071c610716611182565b82611888565b50565b600061076c600860008473ffffffffffffffffffffffffffffffffffffffff1673ffffffffffffffffffffffffffffffffffffffff168152602001908152602001600020805490506110e9565b9050919050565b60008060008373ffffffffffffffffffffffffffffffffffffffff1673ffffffffffffffffffffffffffffffffffffffff168152602001908152602001600020549050919050565b6000610804600560008473ffffffffffffffffffffffffffffffffffffffff1673ffffffffffffffffffffffffffffffffffffffff1681526020019081526020016000206119a2565b9050919050565b600043821061084f576040517f08c379a000000000000000000000000000000000000000000000000000000000815260040161084690612a90565b60405180910390fd5b61085a60098361177c565b9050919050565b6060600480546108709061298d565b80601f016020809104026020016040519081016040528092919081815260200182805461089c9061298d565b80156108e95780601f106108be576101008083540402835291602001916108e9565b820191906000526020600020905b8154815290600101906020018083116108cc57829003601f168201915b5050505050905090565b600080600860008473ffffffffffffffffffffffffffffffffffffffff1673ffffffffffffffffffffffffffffffffffffffff168152602001908152602001600020805490509050600081146109db57600860008473ffffffffffffffffffffffffffffffffffffffff1673ffffffffffffffffffffffffffffffffffffffff16815260200190815260200160002060018261098f9190612ab0565b815481106109a05761099f612ae4565b5b9060005260206000200160000160049054906101000a90047bffffffffffffffffffffffffffffffffffffffffffffffffffffffff166109de565b60005b7bffffffffffffffffffffffffffffffffffffffffffffffffffffffff16915050919050565b600080610a0f611182565b90506000610a1d8286610ce4565b905083811015610a62576040517f08c379a0000000000000000000000000000000000000000000000000000000008152600401610a5990612b85565b60405180910390fd5b610a6f828686840361118a565b60019250505092915050565b600080610a86611182565b9050610a938185856113e1565b600191505092915050565b83421115610ae1576040517f08c379a0000000000000000000000000000000000000000000000000000000008152600401610ad890612bf1565b60405180910390fd5b6000610b43610b3b7fe48329057bfd03d55e49b547132e39cffd9c1820ad7b9d4c5307691425d15adf898989604051602001610b209493929190612c11565b604051602081830303815290604052805190602001206119b0565b8585856119ca565b9050610b4e816119f5565b8614610b8f576040517f08c379a0000000000000000000000000000000000000000000000000000000008152600401610b8690612ca2565b60405180910390fd5b610b998188611888565b50505050505050565b83421115610be5576040517f08c379a0000000000000000000000000000000000000000000000000000000008152600401610bdc90612d0e565b60405180910390fd5b60007f6e71edae12b1b97f4d1f60370fef10105fa2faae0126114a169c64845d6126c9888888610c148c6119f5565b89604051602001610c2a96959493929190612d2e565b6040516020818303038152906040528051906020012090506000610c4d826119b0565b90506000610c5d828787876119ca565b90508973ffffffffffffffffffffffffffffffffffffffff168173ffffffffffffffffffffffffffffffffffffffff1614610ccd576040517f08c379a0000000000000000000000000000000000000000000000000000000008152600401610cc490612ddb565b60405180910390fd5b610cd88a8a8a61118a565b50505050505050505050565b6000600160008473ffffffffffffffffffffffffffffffffffffffff1673ffffffffffffffffffffffffffffffffffffffff16815260200190815260200160002060008373ffffffffffffffffffffffffffffffffffffffff1673ffffffffffffffffffffffffffffffffffffffff16815260200190815260200160002054905092915050565b610d736122ed565b600860008473ffffffffffffffffffffffffffffffffffffffff1673ffffffffffffffffffffffffffffffffffffffff1681526020019081526020016000208263ffffffff1681548110610dca57610dc9612ae4565b5b906000526020600020016040518060400160405290816000820160009054906101000a900463ffffffff1663ffffffff1663ffffffff1681526020016000820160049054906101000a90047bffffffffffffffffffffffffffffffffffffffffffffffffffffffff167bffffffffffffffffffffffffffffffffffffffffffffffffffffffff167bffffffffffffffffffffffffffffffffffffffffffffffffffffffff1681525050905092915050565b610e858282610f08565b610e8d611a53565b7bffffffffffffffffffffffffffffffffffffffffffffffffffffffff16610eb3610586565b1115610ef4576040517f08c379a0000000000000000000000000000000000000000000000000000000008152600401610eeb90612e6d565b60405180910390fd5b610f02600961106883611a77565b50505050565b600073ffffffffffffffffffffffffffffffffffffffff168273ffffffffffffffffffffffffffffffffffffffff161415610f78576040517f08c379a0000000000000000000000000000000000000000000000000000000008152600401610f6f90612ed9565b60405180910390fd5b610f8460008383611cef565b8060026000828254610f9691906129ee565b92505081905550806000808473ffffffffffffffffffffffffffffffffffffffff1673ffffffffffffffffffffffffffffffffffffffff1681526020019081526020016000206000828254610feb91906129ee565b925050819055508173ffffffffffffffffffffffffffffffffffffffff16600073ffffffffffffffffffffffffffffffffffffffff167fddf252ad1be2c89b69c2b068fc378daa952ba7f163c4a11628f55a4df523b3ef836040516110509190612504565b60405180910390a361106460008383611cf4565b5050565b6000818361107691906129ee565b905092915050565b60007bffffffffffffffffffffffffffffffffffffffffffffffffffffffff80168211156110e1576040517f08c379a00000000000000000000000000000000000000000000000000000000081526004016110d890612f6b565b60405180910390fd5b819050919050565b600063ffffffff8016821115611134576040517f08c379a000000000000000000000000000000000000000000000000000000000815260040161112b90612ffd565b60405180910390fd5b819050919050565b611147838383611167565b611162611153846106a2565b61115c846106a2565b83611d69565b505050565b505050565b6000818361117a9190612ab0565b905092915050565b600033905090565b600073ffffffffffffffffffffffffffffffffffffffff168373ffffffffffffffffffffffffffffffffffffffff1614156111fa576040517f08c379a00000000000000000000000000000000000000000000000000000000081526004016111f19061308f565b60405180910390fd5b600073ffffffffffffffffffffffffffffffffffffffff168273ffffffffffffffffffffffffffffffffffffffff16141561126a576040517f08c379a000000000000000000000000000000000000000000000000000000000815260040161126190613121565b60405180910390fd5b80600160008573ffffffffffffffffffffffffffffffffffffffff1673ffffffffffffffffffffffffffffffffffffffff16815260200190815260200160002060008473ffffffffffffffffffffffffffffffffffffffff1673ffffffffffffffffffffffffffffffffffffffff168152602001908152602001600020819055508173ffffffffffffffffffffffffffffffffffffffff168373ffffffffffffffffffffffffffffffffffffffff167f8c5be1e5ebec7d5bd14f71427d1e84f3dd0314c0f7b2291e5b200ac8c7c3b925836040516113489190612504565b60405180910390a3505050565b60006113618484610ce4565b90507fffffffffffffffffffffffffffffffffffffffffffffffffffffffffffffffff81146113db57818110156113cd576040517f08c379a00000000000000000000000000000000000000000000000000000000081526004016113c49061318d565b60405180910390fd5b6113da848484840361118a565b5b50505050565b600073ffffffffffffffffffffffffffffffffffffffff168373ffffffffffffffffffffffffffffffffffffffff161415611451576040517f08c379a00000000000000000000000000000000000000000000000000000000081526004016114489061321f565b60405180910390fd5b600073ffffffffffffffffffffffffffffffffffffffff168273ffffffffffffffffffffffffffffffffffffffff1614156114c1576040517f08c379a00000000000000000000000000000000000000000000000000000000081526004016114b8906132b1565b60405180910390fd5b6114cc838383611cef565b60008060008573ffffffffffffffffffffffffffffffffffffffff1673ffffffffffffffffffffffffffffffffffffffff16815260200190815260200160002054905081811015611552576040517f08c379a000000000000000000000000000000000000000000000000000000000815260040161154990613343565b60405180910390fd5b8181036000808673ffffffffffffffffffffffffffffffffffffffff1673ffffffffffffffffffffffffffffffffffffffff16815260200190815260200160002081905550816000808573ffffffffffffffffffffffffffffffffffffffff1673ffffffffffffffffffffffffffffffffffffffff16815260200190815260200160002060008282546115e591906129ee565b925050819055508273ffffffffffffffffffffffffffffffffffffffff168473ffffffffffffffffffffffffffffffffffffffff167fddf252ad1be2c89b69c2b068fc378daa952ba7f163c4a11628f55a4df523b3ef846040516116499190612504565b60405180910390a361165c848484611cf4565b50505050565b60007f000000000000000000000000000000000000000000000000000000000000000073ffffffffffffffffffffffffffffffffffffffff163073ffffffffffffffffffffffffffffffffffffffff161480156116de57507f000000000000000000000000000000000000000000000000000000000000000046145b1561170b577f00000000000000000000000000000000000000000000000000000000000000009050611779565b6117767f00000000000000000000000000000000000000000000000000000000000000007f00000000000000000000000000000000000000000000000000000000000000007f0000000000000000000000000000000000000000000000000000000000000000611f62565b90505b90565b6000808380549050905060005b818110156117fb57600061179d8284611f9c565b9050848682815481106117b3576117b2612ae4565b5b9060005260206000200160000160009054906101000a900463ffffffff1663ffffffff1611156117e5578092506117f5565b6001816117f291906129ee565b91505b50611789565b6000821461185d57846001836118119190612ab0565b8154811061182257611821612ae4565b5b9060005260206000200160000160049054906101000a90047bffffffffffffffffffffffffffffffffffffffffffffffffffffffff16611860565b60005b7bffffffffffffffffffffffffffffffffffffffffffffffffffffffff169250505092915050565b6000611893836106a2565b905060006118a084610773565b905082600760008673ffffffffffffffffffffffffffffffffffffffff1673ffffffffffffffffffffffffffffffffffffffff16815260200190815260200160002060006101000a81548173ffffffffffffffffffffffffffffffffffffffff021916908373ffffffffffffffffffffffffffffffffffffffff1602179055508273ffffffffffffffffffffffffffffffffffffffff168273ffffffffffffffffffffffffffffffffffffffff168573ffffffffffffffffffffffffffffffffffffffff167f3134e8a2e6d97e929a7e54011ea5485d7d196dd5f0ba4d4ef95803e8e3fc257f60405160405180910390a461199c828483611d69565b50505050565b600081600001549050919050565b60006119c36119bd611662565b83611fc2565b9050919050565b60008060006119db87878787611ff5565b915091506119e881612102565b8192505050949350505050565b600080600560008473ffffffffffffffffffffffffffffffffffffffff1673ffffffffffffffffffffffffffffffffffffffff1681526020019081526020016000209050611a42816119a2565b9150611a4d816122d7565b50919050565b60007bffffffffffffffffffffffffffffffffffffffffffffffffffffffff905090565b60008060008580549050905060008114611ae55785600182611a999190612ab0565b81548110611aaa57611aa9612ae4565b5b9060005260206000200160000160049054906101000a90047bffffffffffffffffffffffffffffffffffffffffffffffffffffffff16611ae8565b60005b7bffffffffffffffffffffffffffffffffffffffffffffffffffffffff169250611b1683858763ffffffff16565b9150600081118015611b6957504386600183611b329190612ab0565b81548110611b4357611b42612ae4565b5b9060005260206000200160000160009054906101000a900463ffffffff1663ffffffff16145b15611bf657611b778261107e565b86600183611b859190612ab0565b81548110611b9657611b95612ae4565b5b9060005260206000200160000160046101000a8154817bffffffffffffffffffffffffffffffffffffffffffffffffffffffff02191690837bffffffffffffffffffffffffffffffffffffffffffffffffffffffff160217905550611ce6565b856040518060400160405280611c0b436110e9565b63ffffffff168152602001611c1f8561107e565b7bffffffffffffffffffffffffffffffffffffffffffffffffffffffff168152509080600181540180825580915050600190039060005260206000200160009091909190915060008201518160000160006101000a81548163ffffffff021916908363ffffffff16021790555060208201518160000160046101000a8154817bffffffffffffffffffffffffffffffffffffffffffffffffffffffff02191690837bffffffffffffffffffffffffffffffffffffffffffffffffffffffff16021790555050505b50935093915050565b505050565b611cff83838361113c565b8173ffffffffffffffffffffffffffffffffffffffff168373ffffffffffffffffffffffffffffffffffffffff167f108a1dcbe1a5dcdd5c51baa379dfe25ad988a0adccf1a7e028c1d4a0e326722183604051611d5c91906133af565b60405180910390a3505050565b8173ffffffffffffffffffffffffffffffffffffffff168373ffffffffffffffffffffffffffffffffffffffff1614158015611da55750600081115b15611f5d57600073ffffffffffffffffffffffffffffffffffffffff168373ffffffffffffffffffffffffffffffffffffffff1614611e8357600080611e2c600860008773ffffffffffffffffffffffffffffffffffffffff1673ffffffffffffffffffffffffffffffffffffffff16815260200190815260200160002061116c85611a77565b915091508473ffffffffffffffffffffffffffffffffffffffff167fdec2bacdd2f05b59de34da9b523dff8be42e5e38e818c82fdb0bae774387a7248383604051611e789291906133dd565b60405180910390a250505b600073ffffffffffffffffffffffffffffffffffffffff168273ffffffffffffffffffffffffffffffffffffffff1614611f5c57600080611f05600860008673ffffffffffffffffffffffffffffffffffffffff1673ffffffffffffffffffffffffffffffffffffffff16815260200190815260200160002061106885611a77565b915091508373ffffffffffffffffffffffffffffffffffffffff167fdec2bacdd2f05b59de34da9b523dff8be42e5e38e818c82fdb0bae774387a7248383604051611f519291906133dd565b60405180910390a250505b5b505050565b60008383834630604051602001611f7d959493929190613406565b6040516020818303038152906040528051906020012090509392505050565b60006002828418611fad9190613488565b828416611fba91906129ee565b905092915050565b60008282604051602001611fd7929190613531565b60405160208183030381529060405280519060200120905092915050565b6000807f7fffffffffffffffffffffffffffffff5d576e7357a4501ddfe92f46681b20a08360001c11156120305760006003915091506120f9565b601b8560ff16141580156120485750601c8560ff1614155b1561205a5760006004915091506120f9565b60006001878787876040516000815260200160405260405161207f9493929190613568565b6020604051602081039080840390855afa1580156120a1573d6000803e3d6000fd5b505050602060405103519050600073ffffffffffffffffffffffffffffffffffffffff168173ffffffffffffffffffffffffffffffffffffffff1614156120f0576000600192509250506120f9565b80600092509250505b94509492505050565b60006004811115612116576121156135ad565b5b816004811115612129576121286135ad565b5b1415612134576122d4565b60016004811115612148576121476135ad565b5b81600481111561215b5761215a6135ad565b5b141561219c576040517f08c379a000000000000000000000000000000000000000000000000000000000815260040161219390613628565b60405180910390fd5b600260048111156121b0576121af6135ad565b5b8160048111156121c3576121c26135ad565b5b1415612204576040517f08c379a00000000000000000000000000000000000000000000000000000000081526004016121fb90613694565b60405180910390fd5b60036004811115612218576122176135ad565b5b81600481111561222b5761222a6135ad565b5b141561226c576040517f08c379a000000000000000000000000000000000000000000000000000000000815260040161226390613726565b60405180910390fd5b60048081111561227f5761227e6135ad565b5b816004811115612292576122916135ad565b5b14156122d3576040517f08c379a00000000000000000000000000000000000000000000000000000000081526004016122ca906137b8565b60405180910390fd5b5b50565b6001816000016000828254019250508190555050565b6040518060400160405280600063ffffffff16815260200160007bffffffffffffffffffffffffffffffffffffffffffffffffffffffff1681525090565b600081519050919050565b600082825260208201905092915050565b60005b8381101561236557808201518184015260208101905061234a565b83811115612374576000848401525b50505050565b6000601f19601f8301169050919050565b60006123968261232b565b6123a08185612336565b93506123b0818560208601612347565b6123b98161237a565b840191505092915050565b600060208201905081810360008301526123de818461238b565b905092915050565b600080fd5b600073ffffffffffffffffffffffffffffffffffffffff82169050919050565b6000612416826123eb565b9050919050565b6124268161240b565b811461243157600080fd5b50565b6000813590506124438161241d565b92915050565b6000819050919050565b61245c81612449565b811461246757600080fd5b50565b60008135905061247981612453565b92915050565b60008060408385031215612496576124956123e6565b5b60006124a485828601612434565b92505060206124b58582860161246a565b9150509250929050565b60008115159050919050565b6124d4816124bf565b82525050565b60006020820190506124ef60008301846124cb565b92915050565b6124fe81612449565b82525050565b600060208201905061251960008301846124f5565b92915050565b600080600060608486031215612538576125376123e6565b5b600061254686828701612434565b935050602061255786828701612434565b92505060406125688682870161246a565b9150509250925092565b600060ff82169050919050565b61258881612572565b82525050565b60006020820190506125a3600083018461257f565b92915050565b6000819050919050565b6125bc816125a9565b82525050565b60006020820190506125d760008301846125b3565b92915050565b6000602082840312156125f3576125f26123e6565b5b600061260184828501612434565b91505092915050565b6126138161240b565b82525050565b600060208201905061262e600083018461260a565b92915050565b600063ffffffff82169050919050565b61264d81612634565b82525050565b60006020820190506126686000830184612644565b92915050565b600060208284031215612684576126836123e6565b5b60006126928482850161246a565b91505092915050565b6126a481612572565b81146126af57600080fd5b50565b6000813590506126c18161269b565b92915050565b6126d0816125a9565b81146126db57600080fd5b50565b6000813590506126ed816126c7565b92915050565b60008060008060008060c087890312156127105761270f6123e6565b5b600061271e89828a01612434565b965050602061272f89828a0161246a565b955050604061274089828a0161246a565b945050606061275189828a016126b2565b935050608061276289828a016126de565b92505060a061277389828a016126de565b9150509295509295509295565b600080600080600080600060e0888a03121561279f5761279e6123e6565b5b60006127ad8a828b01612434565b97505060206127be8a828b01612434565b96505060406127cf8a828b0161246a565b95505060606127e08a828b0161246a565b94505060806127f18a828b016126b2565b93505060a06128028a828b016126de565b92505060c06128138a828b016126de565b91505092959891949750929550565b60008060408385031215612839576128386123e6565b5b600061284785828601612434565b925050602061285885828601612434565b9150509250929050565b61286b81612634565b811461287657600080fd5b50565b60008135905061288881612862565b92915050565b600080604083850312156128a5576128a46123e6565b5b60006128b385828601612434565b92505060206128c485828601612879565b9150509250929050565b6128d781612634565b82525050565b60007bffffffffffffffffffffffffffffffffffffffffffffffffffffffff82169050919050565b61290e816128dd565b82525050565b60408201600082015161292a60008501826128ce565b50602082015161293d6020850182612905565b50505050565b60006040820190506129586000830184612914565b92915050565b7f4e487b7100000000000000000000000000000000000000000000000000000000600052602260045260246000fd5b600060028204905060018216806129a557607f821691505b602082108114156129b9576129b861295e565b5b50919050565b7f4e487b7100000000000000000000000000000000000000000000000000000000600052601160045260246000fd5b60006129f982612449565b9150612a0483612449565b9250827fffffffffffffffffffffffffffffffffffffffffffffffffffffffffffffffff03821115612a3957612a386129bf565b5b828201905092915050565b7f4552433230566f7465733a20626c6f636b206e6f7420796574206d696e656400600082015250565b6000612a7a601f83612336565b9150612a8582612a44565b602082019050919050565b60006020820190508181036000830152612aa981612a6d565b9050919050565b6000612abb82612449565b9150612ac683612449565b925082821015612ad957612ad86129bf565b5b828203905092915050565b7f4e487b7100000000000000000000000000000000000000000000000000000000600052603260045260246000fd5b7f45524332303a2064656372656173656420616c6c6f77616e63652062656c6f7760008201527f207a65726f000000000000000000000000000000000000000000000000000000602082015250565b6000612b6f602583612336565b9150612b7a82612b13565b604082019050919050565b60006020820190508181036000830152612b9e81612b62565b9050919050565b7f4552433230566f7465733a207369676e61747572652065787069726564000000600082015250565b6000612bdb601d83612336565b9150612be682612ba5565b602082019050919050565b60006020820190508181036000830152612c0a81612bce565b9050919050565b6000608082019050612c2660008301876125b3565b612c33602083018661260a565b612c4060408301856124f5565b612c4d60608301846124f5565b95945050505050565b7f4552433230566f7465733a20696e76616c6964206e6f6e636500000000000000600082015250565b6000612c8c601983612336565b9150612c9782612c56565b602082019050919050565b60006020820190508181036000830152612cbb81612c7f565b9050919050565b7f45524332305065726d69743a206578706972656420646561646c696e65000000600082015250565b6000612cf8601d83612336565b9150612d0382612cc2565b602082019050919050565b60006020820190508181036000830152612d2781612ceb565b9050919050565b600060c082019050612d4360008301896125b3565b612d50602083018861260a565b612d5d604083018761260a565b612d6a60608301866124f5565b612d7760808301856124f5565b612d8460a08301846124f5565b979650505050505050565b7f45524332305065726d69743a20696e76616c6964207369676e61747572650000600082015250565b6000612dc5601e83612336565b9150612dd082612d8f565b602082019050919050565b60006020820190508181036000830152612df481612db8565b9050919050565b7f4552433230566f7465733a20746f74616c20737570706c79207269736b73206f60008201527f766572666c6f77696e6720766f74657300000000000000000000000000000000602082015250565b6000612e57603083612336565b9150612e6282612dfb565b604082019050919050565b60006020820190508181036000830152612e8681612e4a565b9050919050565b7f45524332303a206d696e7420746f20746865207a65726f206164647265737300600082015250565b6000612ec3601f83612336565b9150612ece82612e8d565b602082019050919050565b60006020820190508181036000830152612ef281612eb6565b9050919050565b7f53616665436173743a2076616c756520646f65736e27742066697420696e203260008201527f3234206269747300000000000000000000000000000000000000000000000000602082015250565b6000612f55602783612336565b9150612f6082612ef9565b604082019050919050565b60006020820190508181036000830152612f8481612f48565b9050919050565b7f53616665436173743a2076616c756520646f65736e27742066697420696e203360008201527f3220626974730000000000000000000000000000000000000000000000000000602082015250565b6000612fe7602683612336565b9150612ff282612f8b565b604082019050919050565b6000602082019050818103600083015261301681612fda565b9050919050565b7f45524332303a20617070726f76652066726f6d20746865207a65726f2061646460008201527f7265737300000000000000000000000000000000000000000000000000000000602082015250565b6000613079602483612336565b91506130848261301d565b604082019050919050565b600060208201905081810360008301526130a88161306c565b9050919050565b7f45524332303a20617070726f766520746f20746865207a65726f20616464726560008201527f7373000000000000000000000000000000000000000000000000000000000000602082015250565b600061310b602283612336565b9150613116826130af565b604082019050919050565b6000602082019050818103600083015261313a816130fe565b9050919050565b7f45524332303a20696e73756666696369656e7420616c6c6f77616e6365000000600082015250565b6000613177601d83612336565b915061318282613141565b602082019050919050565b600060208201905081810360008301526131a68161316a565b9050919050565b7f45524332303a207472616e736665722066726f6d20746865207a65726f20616460008201527f6472657373000000000000000000000000000000000000000000000000000000602082015250565b6000613209602583612336565b9150613214826131ad565b604082019050919050565b60006020820190508181036000830152613238816131fc565b9050919050565b7f45524332303a207472616e7366657220746f20746865207a65726f206164647260008201527f6573730000000000000000000000000000000000000000000000000000000000602082015250565b600061329b602383612336565b91506132a68261323f565b604082019050919050565b600060208201905081810360008301526132ca8161328e565b9050919050565b7f45524332303a207472616e7366657220616d6f756e742065786365656473206260008201527f616c616e63650000000000000000000000000000000000000000000000000000602082015250565b600061332d602683612336565b9150613338826132d1565b604082019050919050565b6000602082019050818103600083015261335c81613320565b9050919050565b7f41207472616e736665722068617070656e656421000000000000000000000000600082015250565b6000613399601483612336565b91506133a482613363565b602082019050919050565b60006040820190506133c460008301846124f5565b81810360208301526133d58161338c565b905092915050565b60006040820190506133f260008301856124f5565b6133ff60208301846124f5565b9392505050565b600060a08201905061341b60008301886125b3565b61342860208301876125b3565b61343560408301866125b3565b61344260608301856124f5565b61344f608083018461260a565b9695505050505050565b7f4e487b7100000000000000000000000000000000000000000000000000000000600052601260045260246000fd5b600061349382612449565b915061349e83612449565b9250826134ae576134ad613459565b5b828204905092915050565b600081905092915050565b7f1901000000000000000000000000000000000000000000000000000000000000600082015250565b60006134fa6002836134b9565b9150613505826134c4565b600282019050919050565b6000819050919050565b61352b613526826125a9565b613510565b82525050565b600061353c826134ed565b9150613548828561351a565b602082019150613558828461351a565b6020820191508190509392505050565b600060808201905061357d60008301876125b3565b61358a602083018661257f565b61359760408301856125b3565b6135a460608301846125b3565b95945050505050565b7f4e487b7100000000000000000000000000000000000000000000000000000000600052602160045260246000fd5b7f45434453413a20696e76616c6964207369676e61747572650000000000000000600082015250565b6000613612601883612336565b915061361d826135dc565b602082019050919050565b6000602082019050818103600083015261364181613605565b9050919050565b7f45434453413a20696e76616c6964207369676e6174757265206c656e67746800600082015250565b600061367e601f83612336565b915061368982613648565b602082019050919050565b600060208201905081810360008301526136ad81613671565b9050919050565b7f45434453413a20696e76616c6964207369676e6174757265202773272076616c60008201527f7565000000000000000000000000000000000000000000000000000000000000602082015250565b6000613710602283612336565b915061371b826136b4565b604082019050919050565b6000602082019050818103600083015261373f81613703565b9050919050565b7f45434453413a20696e76616c6964207369676e6174757265202776272076616c60008201527f7565000000000000000000000000000000000000000000000000000000000000602082015250565b60006137a2602283612336565b91506137ad82613746565b604082019050919050565b600060208201905081810360008301526137d181613795565b905091905056fea2646970667358221220d7a4552d1b875cb08a0078a05b0a25bbaaac129a00de782aeb9d4decd245375964736f6c63430008090033",
  "linkReferences": {},
  "deployedLinkReferences": {}
}